{
  "contractName": "Market",
  "abi": [
    {
      "anonymous": false,
      "inputs": [
        {
          "indexed": false,
          "internalType": "uint256",
          "name": "index",
          "type": "uint256"
        }
      ],
      "name": "NewContract",
      "type": "event"
    },
    {
      "constant": false,
      "inputs": [
        {
          "internalType": "bytes32",
          "name": "lock",
          "type": "bytes32"
        },
        {
          "internalType": "uint256",
          "name": "expire",
          "type": "uint256"
        }
      ],
      "name": "newContract",
      "outputs": [],
      "payable": true,
      "stateMutability": "payable",
      "type": "function"
    },
    {
      "constant": true,
      "inputs": [
        {
          "internalType": "address",
          "name": "addr",
          "type": "address"
        },
        {
          "internalType": "uint256",
          "name": "index",
          "type": "uint256"
        }
      ],
      "name": "getContract",
      "outputs": [
        {
          "internalType": "uint256",
          "name": "",
          "type": "uint256"
        },
        {
          "internalType": "bytes32",
          "name": "",
          "type": "bytes32"
        },
        {
          "internalType": "uint256",
          "name": "",
          "type": "uint256"
        }
      ],
      "payable": false,
      "stateMutability": "view",
      "type": "function"
    },
    {
      "constant": true,
      "inputs": [
        {
          "internalType": "address",
          "name": "a",
          "type": "address"
        }
      ],
      "name": "getCount",
      "outputs": [
        {
          "internalType": "uint256",
          "name": "",
          "type": "uint256"
        }
      ],
      "payable": false,
      "stateMutability": "view",
      "type": "function"
    }
  ],
  "bytecode": "0x608060405234801561001057600080fd5b506103da806100206000396000f3fe6080604052600436106100345760003560e01c80634f0cd27b14610039578063586db74c1461009e578063aad55726146100d6575b600080fd5b34801561004557600080fd5b506100886004803603602081101561005c57600080fd5b81019080803573ffffffffffffffffffffffffffffffffffffffff169060200190929190505050610153565b6040518082815260200191505060405180910390f35b6100d4600480360360408110156100b457600080fd5b81019080803590602001909291908035906020019092919050505061019e565b005b3480156100e257600080fd5b5061012f600480360360408110156100f957600080fd5b81019080803573ffffffffffffffffffffffffffffffffffffffff169060200190929190803590602001909291905050506102d5565b60405180848152602001838152602001828152602001935050505060405180910390f35b60008060008373ffffffffffffffffffffffffffffffffffffffff1673ffffffffffffffffffffffffffffffffffffffff168152602001908152602001600020805490509050919050565b600034116101ab57600080fd5b6000803373ffffffffffffffffffffffffffffffffffffffff1673ffffffffffffffffffffffffffffffffffffffff16815260200190815260200160002060405180606001604052803481526020018481526020018381525090806001815401808255809150509060018203906000526020600020906003020160009091929091909150600082015181600001556020820151816001015560408201518160020155505050600060016000803373ffffffffffffffffffffffffffffffffffffffff1673ffffffffffffffffffffffffffffffffffffffff168152602001908152602001600020805490500390507f213f74f9fdf2ccdedecee95dd0d457e13fb26685ef6644ece69d4a853e6141f8816040518082815260200191505060405180910390a1505050565b60008060006102e2610381565b6000808773ffffffffffffffffffffffffffffffffffffffff1673ffffffffffffffffffffffffffffffffffffffff168152602001908152602001600020858154811061032b57fe5b906000526020600020906003020160405180606001604052908160008201548152602001600182015481526020016002820154815250509050806000015181602001518260400151935093509350509250925092565b6040518060600160405280600081526020016000801916815260200160008152509056fea265627a7a723158205f92a0f7194e4cdb2f710610321effc4a8d07e5359e2e4f3ca82923d4d366a4564736f6c63430005100032",
  "source": "pragma solidity >=0.5.2 <0.8.4;\n\ncontract Market {\n\n  struct Contract {\n    uint amount;\n    bytes32 lock;\n    uint expire;\n  }\n\n  mapping (address => Contract[]) contracts;\n  \n  event NewContract(uint index);   \n\n\n  function newContract(bytes32 lock, uint expire) payable public{\n    require(msg.value > 0);\n\n    contracts[msg.sender].push(Contract(msg.value, lock, expire));\n    uint id = contracts[msg.sender].length - 1;\n    emit NewContract(id); \n  }\n  \n  function getContract(address addr, uint index) public view returns (uint, bytes32, uint) {\n    Contract memory c = contracts[addr][index];\n    return (c.amount, c.lock, c.expire);\n  }\n\n  function getCount(address a) public view returns (uint) {\n    return contracts[a].length;\n  }\n}\n",
  "sourcePath": "C:/Users/Wasthu/OneDrive/Documents/eth/Service-Market/contracts/Market.sol",
  "compiler": {
    "name": "solc",
    "version": "0.5.16+commit.9c3226ce.Emscripten.clang"
  },
  "schemaVersion": "3.4.1",
  "updatedAt": "2021-06-10T17:36:38.521Z",
  "networkType": "ethereum",
  "devdoc": {
    "methods": {}
  },
  "userdoc": {
    "methods": {}
  }
}