{
  "contractName": "Market",
  "abi": [
    {
      "anonymous": false,
      "inputs": [
        {
          "indexed": false,
          "internalType": "uint256",
          "name": "index",
          "type": "uint256"
        }
      ],
      "name": "NewContract",
      "type": "event"
    },
    {
      "anonymous": false,
      "inputs": [
        {
          "indexed": false,
          "internalType": "bytes32",
          "name": "proofElement",
          "type": "bytes32"
        }
      ],
      "name": "Root",
      "type": "event"
    },
    {
      "anonymous": false,
      "inputs": [
        {
          "indexed": false,
          "internalType": "bytes20",
          "name": "proofElement",
          "type": "bytes20"
        }
      ],
      "name": "Root20",
      "type": "event"
    },
    {
      "anonymous": false,
      "inputs": [
        {
          "indexed": false,
          "internalType": "uint48",
          "name": "test",
          "type": "uint48"
        }
      ],
      "name": "Test",
      "type": "event"
    },
    {
      "constant": false,
      "inputs": [
        {
          "internalType": "bytes20",
          "name": "lock",
          "type": "bytes20"
        },
        {
          "internalType": "uint256",
          "name": "expire",
          "type": "uint256"
        }
      ],
      "name": "newContract",
      "outputs": [],
      "payable": true,
      "stateMutability": "payable",
      "type": "function"
    },
    {
      "constant": false,
      "inputs": [],
      "name": "refund",
      "outputs": [],
      "payable": true,
      "stateMutability": "payable",
      "type": "function"
    },
    {
      "constant": false,
      "inputs": [
        {
          "internalType": "address",
          "name": "owner",
          "type": "address"
        },
        {
          "components": [
            {
              "internalType": "bytes32[]",
              "name": "W1",
              "type": "bytes32[]"
            },
            {
              "internalType": "bytes32[]",
              "name": "W2",
              "type": "bytes32[]"
            },
            {
              "internalType": "bytes32[]",
              "name": "W3",
              "type": "bytes32[]"
            }
          ],
          "internalType": "struct Market.Witness",
          "name": "witness",
          "type": "tuple"
        },
        {
          "internalType": "bytes",
          "name": "x1",
          "type": "bytes"
        },
        {
          "internalType": "bytes6",
          "name": "v1",
          "type": "bytes6"
        },
        {
          "internalType": "bytes6",
          "name": "e1",
          "type": "bytes6"
        },
        {
          "internalType": "uint48",
          "name": "i1",
          "type": "uint48"
        },
        {
          "internalType": "uint48",
          "name": "i2",
          "type": "uint48"
        },
        {
          "internalType": "uint48",
          "name": "i3",
          "type": "uint48"
        },
        {
          "internalType": "uint8",
          "name": "v",
          "type": "uint8"
        },
        {
          "internalType": "bytes32",
          "name": "r",
          "type": "bytes32"
        },
        {
          "internalType": "bytes32",
          "name": "s",
          "type": "bytes32"
        }
      ],
      "name": "claim",
      "outputs": [],
      "payable": true,
      "stateMutability": "payable",
      "type": "function"
    }
  ],
  "bytecode": "0x608060405234801561001057600080fd5b506112b7806100206000396000f3fe6080604052600436106100345760003560e01c8063590e1ae31461003957806369734d9c146100435780638f97bc2b1461005f575b600080fd5b61004161007b565b005b61005d60048036036100589190810190610c85565b6101f9565b005b61007960048036036100749190810190610da5565b6105e7565b005b610083610a40565b6000803373ffffffffffffffffffffffffffffffffffffffff1673ffffffffffffffffffffffffffffffffffffffff1681526020019081526020016000206040518060800160405290816000820154815260200160018201548152602001600282015481526020016003820160009054906101000a900465ffffffffffff1665ffffffffffff1665ffffffffffff1681525050905042816040015110156101f6576000803373ffffffffffffffffffffffffffffffffffffffff1673ffffffffffffffffffffffffffffffffffffffff168152602001908152602001600020600080820160009055600182016000905560028201600090556003820160006101000a81549065ffffffffffff0219169055505060003390508073ffffffffffffffffffffffffffffffffffffffff166108fc836060015165ffffffffffff168460000151039081150290604051600060405180830381858888f193505050501580156101f3573d6000803e3d6000fd5b50505b50565b600160008c73ffffffffffffffffffffffffffffffffffffffff1673ffffffffffffffffffffffffffffffffffffffff16815260200190815260200160002060008765ffffffffffff1665ffffffffffff16815260200190815260200160002060008665ffffffffffff1665ffffffffffff16815260200190815260200160002060009054906101000a900460ff161561029257600080fd5b6102bd8b338a79ffffffffffffffffffffffffffffffffffffffffffffffffffff1916868686610709565b6102c657600080fd5b60006103408b600001516103308b8b60038f6040516020016102e89190610f0a565b6040516020818303038152906040526040516103049190610f0a565b602060405180830381855afa158015610321573d6000803e3d6000fd5b5050506040515160601b6107eb565b8965ffffffffffff166001610862565b90506103748b6020015161036461035684610949565b61035f85610973565b610983565b8865ffffffffffff166002610862565b90506103ff8b604001516103ef61038a84610949565b60033361039687610973565b6040516020016103a7929190610eb2565b6040516020818303038152906040526040516103c39190610f0a565b602060405180830381855afa1580156103e0573d6000803e3d6000fd5b5050506040515160601b610983565b8765ffffffffffff166003610862565b9050610409610a40565b6000808e73ffffffffffffffffffffffffffffffffffffffff1673ffffffffffffffffffffffffffffffffffffffff1681526020019081526020016000206040518060800160405290816000820154815260200160018201548152602001600282015481526020016003820160009054906101000a900465ffffffffffff1665ffffffffffff1665ffffffffffff168152505090506104a782610973565b6bffffffffffffffffffffffff1916816020015114156105d85760018060008f73ffffffffffffffffffffffffffffffffffffffff1673ffffffffffffffffffffffffffffffffffffffff16815260200190815260200160002060008a65ffffffffffff1665ffffffffffff16815260200190815260200160002060008965ffffffffffff1665ffffffffffff16815260200190815260200160002060006101000a81548160ff0219169083151502179055508960d01c816060015101816060019065ffffffffffff16908165ffffffffffff168152505060003390508073ffffffffffffffffffffffffffffffffffffffff166108fc8c60d01c65ffffffffffff169081150290604051600060405180830381858888f193505050501580156105d5573d6000803e3d6000fd5b50505b50505050505050505050505050565b600034116105f457600080fd5b60008060003373ffffffffffffffffffffffffffffffffffffffff1673ffffffffffffffffffffffffffffffffffffffff168152602001908152602001600020600001541461064257600080fd5b6040518060800160405280348152602001836bffffffffffffffffffffffff19168152602001828152602001600065ffffffffffff168152506000803373ffffffffffffffffffffffffffffffffffffffff1673ffffffffffffffffffffffffffffffffffffffff16815260200190815260200160002060008201518160000155602082015181600101556040820151816002015560608201518160030160006101000a81548165ffffffffffff021916908365ffffffffffff1602179055509050505050565b60008673ffffffffffffffffffffffffffffffffffffffff16600160038789604051602001610739929190610ede565b6040516020818303038152906040526040516107559190610f0a565b602060405180830381855afa158015610772573d6000803e3d6000fd5b5050506040515160601b8686866040516000815260200160405260405161079c9493929190610f5e565b6020604051602081039080840390855afa1580156107be573d6000803e3d6000fd5b5050506020604051035173ffffffffffffffffffffffffffffffffffffffff161490509695505050505050565b6000808360d01c65ffffffffffff1660308660d01c65ffffffffffff166bffffffffffffffffffffffff16901b1760a01b905060008360601c73ffffffffffffffffffffffffffffffffffffffff1660a08360a01c6bffffffffffffffffffffffff16901b1760001b905080925050509392505050565b60008084905060008090505b86518165ffffffffffff16101561093c57600060018201905060008060006108b389878d8865ffffffffffff16815181106108a557fe5b60200260200101518b6109c1565b92509250925061091c8360038685856040516020016108d493929190610f21565b6040516020818303038152906040526040516108f09190610f0a565b602060405180830381855afa15801561090d573d6000803e3d6000fd5b5050506040515160601b610983565b95506002898161092857fe5b04985050505050808060010191505061086e565b5080915050949350505050565b600060308260d01c65ffffffffffff166bffffffffffffffffffffffff16901b60a01b9050919050565b60008160001c60601b9050919050565b60008160601c73ffffffffffffffffffffffffffffffffffffffff1660a08460a01c6bffffffffffffffffffffffff16901b1760001b905092915050565b6000806000808590506000879050600060028a816109db57fe5b0614156109f0578194508793508692506109fa565b8094508693508792505b60018660ff1614610a345760008160d01c8360d01c0165ffffffffffff1690506030816bffffffffffffffffffffffff16901b60a01b9550505b50509450945094915050565b6040518060800160405280600081526020016000801916815260200160008152602001600065ffffffffffff1681525090565b600081359050610a82816111d3565b92915050565b600082601f830112610a9957600080fd5b8135610aac610aa782610fd0565b610fa3565b91508181835260208401935060208101905083856020840282011115610ad157600080fd5b60005b83811015610b015781610ae78882610b20565b845260208401935060208301925050600181019050610ad4565b5050505092915050565b600081359050610b1a816111ea565b92915050565b600081359050610b2f81611201565b92915050565b600081359050610b4481611218565b92915050565b600082601f830112610b5b57600080fd5b8135610b6e610b6982610ff8565b610fa3565b91508082526020830160208301858383011115610b8a57600080fd5b610b9583828461111b565b50505092915050565b600060608284031215610bb057600080fd5b610bba6060610fa3565b9050600082013567ffffffffffffffff811115610bd657600080fd5b610be284828501610a88565b600083015250602082013567ffffffffffffffff811115610c0257600080fd5b610c0e84828501610a88565b602083015250604082013567ffffffffffffffff811115610c2e57600080fd5b610c3a84828501610a88565b60408301525092915050565b600081359050610c558161122f565b92915050565b600081359050610c6a81611246565b92915050565b600081359050610c7f8161125d565b92915050565b60008060008060008060008060008060006101608c8e031215610ca757600080fd5b6000610cb58e828f01610a73565b9b505060208c013567ffffffffffffffff811115610cd257600080fd5b610cde8e828f01610b9e565b9a505060408c013567ffffffffffffffff811115610cfb57600080fd5b610d078e828f01610b4a565b9950506060610d188e828f01610b35565b9850506080610d298e828f01610b35565b97505060a0610d3a8e828f01610c5b565b96505060c0610d4b8e828f01610c5b565b95505060e0610d5c8e828f01610c5b565b945050610100610d6e8e828f01610c70565b935050610120610d808e828f01610b20565b925050610140610d928e828f01610b20565b9150509295989b509295989b9093969950565b60008060408385031215610db857600080fd5b6000610dc685828601610b0b565b9250506020610dd785828601610c46565b9150509250929050565b610df2610ded8261104c565b61116f565b82525050565b610e09610e048261103a565b61115d565b82525050565b610e20610e1b8261105e565b611181565b82525050565b610e2f81611109565b82525050565b610e3e8161108a565b82525050565b610e55610e508261108a565b61118b565b82525050565b6000610e6682611024565b610e70818561102f565b9350610e8081856020860161112a565b80840191505092915050565b610e9d610e98826110ea565b6111a7565b82525050565b610eac816110fc565b82525050565b6000610ebe8285610de1565b601482019150610ece8284610e0f565b6014820191508190509392505050565b6000610eea8285610e0f565b601482019150610efa8284610df8565b6014820191508190509392505050565b6000610f168284610e5b565b915081905092915050565b6000610f2d8286610e8c565b600682019150610f3d8285610e44565b602082019150610f4d8284610e44565b602082019150819050949350505050565b6000608082019050610f736000830187610e26565b610f806020830186610ea3565b610f8d6040830185610e35565b610f9a6060830184610e35565b95945050505050565b6000604051905081810181811067ffffffffffffffff82111715610fc657600080fd5b8060405250919050565b600067ffffffffffffffff821115610fe757600080fd5b602082029050602081019050919050565b600067ffffffffffffffff82111561100f57600080fd5b601f19601f8301169050602081019050919050565b600081519050919050565b600081905092915050565b6000611045826110c0565b9050919050565b6000611057826110c0565b9050919050565b60007fffffffffffffffffffffffffffffffffffffffff00000000000000000000000082169050919050565b6000819050919050565b60007fffffffffffff000000000000000000000000000000000000000000000000000082169050919050565b600073ffffffffffffffffffffffffffffffffffffffff82169050919050565b6000819050919050565b600065ffffffffffff82169050919050565b600060ff82169050919050565b60006111148261105e565b9050919050565b82818337600083830152505050565b60005b8381101561114857808201518184015260208101905061112d565b83811115611157576000848401525b50505050565b600061116882611195565b9050919050565b600061117a82611195565b9050919050565b6000819050919050565b6000819050919050565b60006111a0826111c6565b9050919050565b60006111b2826111b9565b9050919050565b60008160d01b9050919050565b60008160601b9050919050565b6111dc8161103a565b81146111e757600080fd5b50565b6111f38161105e565b81146111fe57600080fd5b50565b61120a8161108a565b811461121557600080fd5b50565b61122181611094565b811461122c57600080fd5b50565b611238816110e0565b811461124357600080fd5b50565b61124f816110ea565b811461125a57600080fd5b50565b611266816110fc565b811461127157600080fd5b5056fea365627a7a72315820d14363226b4b965689ce2f2916ef03e83669790a196241483e213999e1d6523d6c6578706572696d656e74616cf564736f6c63430005100040",
  "source": "pragma solidity >=0.5.2 <0.8.4;\npragma experimental ABIEncoderV2;\n\ncontract Market {\n\n    struct Contract {\n        uint256 amount;\n        bytes32 lock;\n        uint256 expire;\n        uint48 claimed_value;\n    }\n    \n    struct Witness {\n        bytes32[] W1;\n        bytes32[] W2;\n        bytes32[] W3;\n    }\n\n    mapping(address => Contract) contracts;\n    mapping (address => mapping (uint48 => mapping(uint48=>bool))) private claims;\n    \n    event NewContract(uint256 index);\n    event Root(bytes32 proofElement);\n    event Root20(bytes20 proofElement);\n    event Test(uint48 test);\n\n    function newContract(bytes20 lock, uint256 expire ) public payable {\n        require(msg.value > 0);\n        require(contracts[msg.sender].amount == 0); //check already exsist\n\n        contracts[msg.sender] = Contract(\n            {\n                amount: msg.value,\n                lock:lock,\n                expire:expire,\n                claimed_value:0\n            }\n        );\n    }\n\n    function _concat2(bytes12 a, bytes20 b) internal pure returns (bytes32) {\n        return bytes32((uint256(uint96(a)) << 160) | uint160(b));\n    }\n\n    function _concat3(\n        bytes6 a,\n        bytes6 b,\n        bytes20 c\n    ) internal pure returns (bytes32) {\n        bytes12 x = bytes12((uint96(uint48(a)) << 48) | uint48(b));\n        bytes32 y = bytes32((uint256(uint96(x)) << 160) | uint160(c));\n        return y;\n    }\n\n    function _F(\n        uint256 j,\n        bytes32 ln,\n        bytes32 w,\n        uint8 layer\n    )\n        internal\n        pure\n        returns (\n            bytes12 p1,\n            bytes32 p2,\n            bytes32 p3\n        )\n    {\n        bytes12 w1 = bytes12(w);\n        bytes12 ln1 = bytes12(ln);\n        if (j % 2 == 0) {\n            p1 = w1;\n            p2 = ln;\n            p3 = w;\n        } else {\n            p1 = ln1;\n            p2 = w;\n            p3 = ln;\n        }\n        if (layer != 1) {\n            uint96 sum = uint48(bytes6(w1)) + uint48(bytes6(ln1));\n            p1 = bytes12(sum << 48);\n        }\n    }\n\n    function _k(bytes32 l) internal pure returns (bytes12) {\n        return bytes12(uint96(uint48(bytes6(l))) << 48);\n    }\n\n    function _x(bytes32 l) internal pure returns (bytes20) {\n        return bytes20(uint160(uint256(l)));\n    }\n\n    function refund() public payable {\n        Contract memory c = contracts[msg.sender];\n        if(c.expire < block.timestamp){\n            delete contracts[msg.sender];\n            // delete claims[owner];\n            address payable owner = msg.sender; \n            owner.transfer(c.amount - c.claimed_value);  \n        }\n    }\n    \n     function is_valid_signature(\n        address signer,\n        address sender,\n        bytes20 value,\n        uint8 v,\n        bytes32 r,\n        bytes32 s\n    ) internal pure returns(bool) {\n        return ecrecover( ripemd160(abi.encodePacked(value, sender)), v, r, s) == signer;\n    }\n    \n    \n    function verify(\n        bytes32[] memory W,\n        bytes32 h,\n        uint256 j,\n        uint8 layer\n    ) internal  pure returns (bytes32) {\n        bytes32 ln = h;\n\n        for (uint48 i = 0; i < W.length; i++) {\n            uint48 height = i + 1;\n\n            (bytes12 p1, bytes32 p2, bytes32 p3) = _F(j, ln, W[i], layer);\n            ln = _concat2(p1, ripemd160(abi.encodePacked(height, p2, p3)));\n\n            j = j / 2;\n        }\n        return ln;\n    }\n\n    function claim(\n        address owner,\n        Witness memory witness,\n        bytes memory x1,\n        bytes6 v1,\n        bytes6 e1,\n        uint48 i1,\n        uint48 i2,\n        uint48 i3, // bytes32 sig\n        uint8 v, bytes32 r, bytes32 s\n    ) public payable {\n\n        //already claimed check\n        require(!claims[owner][i1][i2]);\n\n        //signature verification\n        require(is_valid_signature(owner, msg.sender, v1, v, r, s));\n\n        bytes32 l;\n        {\n        //level alpha check\n        l = verify(\n            witness.W1,\n            _concat3(v1, e1, ripemd160(abi.encodePacked(x1))),\n            i1,\n            1\n        );\n\n        //level beta check\n        l = verify(\n            witness.W2,\n            _concat2(_k(l), _x(l)),\n            i2,\n            2\n        );\n\n        //level theta check\n        l = verify(\n            witness.W3,\n            _concat2(_k(l), ripemd160(abi.encodePacked(msg.sender, _x(l)))),\n            i3,\n            3\n        );\n        }\n        \n        Contract memory c = contracts[owner];\n        //root lock verification\n        if(c.lock == _x(l)){\n            claims[owner][i1][i2] = true; // add to claimed list\n            c.claimed_value = c.claimed_value + uint48(v1); \n            address payable sender = msg.sender; \n            sender.transfer(uint48(v1)); // transfer money\n        }\n    }\n}",
  "sourcePath": "/home/anupa/Projects/Service-Market/contracts/Market.sol",
  "compiler": {
    "name": "solc",
    "version": "0.5.16+commit.9c3226ce.Emscripten.clang"
  },
  "schemaVersion": "3.4.1",
  "updatedAt": "2021-08-21T12:48:26.829Z",
  "devdoc": {
    "methods": {}
  },
  "userdoc": {
    "methods": {}
  }
}