{
  "contractName": "Market",
  "abi": [
    {
      "anonymous": false,
      "inputs": [
        {
          "indexed": false,
          "internalType": "uint256",
          "name": "index",
          "type": "uint256"
        }
      ],
      "name": "NewContract",
      "type": "event"
    },
    {
      "anonymous": false,
      "inputs": [
        {
          "indexed": false,
          "internalType": "bytes32",
          "name": "proofElement",
          "type": "bytes32"
        }
      ],
      "name": "Root",
      "type": "event"
    },
    {
      "anonymous": false,
      "inputs": [
        {
          "indexed": false,
          "internalType": "bytes20",
          "name": "proofElement",
          "type": "bytes20"
        }
      ],
      "name": "Root20",
      "type": "event"
    },
    {
      "anonymous": false,
      "inputs": [
        {
          "indexed": false,
          "internalType": "uint48",
          "name": "test",
          "type": "uint48"
        }
      ],
      "name": "Test",
      "type": "event"
    },
    {
      "constant": false,
      "inputs": [
        {
          "internalType": "bytes20",
          "name": "lock",
          "type": "bytes20"
        },
        {
          "internalType": "uint256",
          "name": "expire",
          "type": "uint256"
        }
      ],
      "name": "newContract",
      "outputs": [],
      "payable": true,
      "stateMutability": "payable",
      "type": "function"
    },
    {
      "constant": false,
      "inputs": [],
      "name": "refund",
      "outputs": [],
      "payable": true,
      "stateMutability": "payable",
      "type": "function"
    },
    {
      "constant": false,
      "inputs": [
        {
          "internalType": "address",
          "name": "owner",
          "type": "address"
        },
        {
          "components": [
            {
              "internalType": "bytes32[]",
              "name": "W1",
              "type": "bytes32[]"
            },
            {
              "internalType": "bytes32[]",
              "name": "W2",
              "type": "bytes32[]"
            },
            {
              "internalType": "bytes32[]",
              "name": "W3",
              "type": "bytes32[]"
            }
          ],
          "internalType": "struct Market.Witness",
          "name": "witness",
          "type": "tuple"
        },
        {
          "internalType": "bytes",
          "name": "x1",
          "type": "bytes"
        },
        {
          "internalType": "bytes6",
          "name": "v1",
          "type": "bytes6"
        },
        {
          "internalType": "bytes6",
          "name": "e1",
          "type": "bytes6"
        },
        {
          "internalType": "uint48",
          "name": "i1",
          "type": "uint48"
        },
        {
          "internalType": "uint48",
          "name": "i2",
          "type": "uint48"
        },
        {
          "internalType": "uint48",
          "name": "i3",
          "type": "uint48"
        },
        {
          "internalType": "uint8",
          "name": "v",
          "type": "uint8"
        },
        {
          "internalType": "bytes32",
          "name": "r",
          "type": "bytes32"
        },
        {
          "internalType": "bytes32",
          "name": "s",
          "type": "bytes32"
        }
      ],
      "name": "claim",
      "outputs": [],
      "payable": true,
      "stateMutability": "payable",
      "type": "function"
    }
  ],
  "bytecode": "0x608060405234801561001057600080fd5b5061129b806100206000396000f3fe6080604052600436106100345760003560e01c8063590e1ae31461003957806369734d9c146100435780638f97bc2b1461005f575b600080fd5b61004161007b565b005b61005d60048036036100589190810190610c58565b6101f9565b005b61007960048036036100749190810190610d78565b610605565b005b6000339050610088610a13565b6000808373ffffffffffffffffffffffffffffffffffffffff1673ffffffffffffffffffffffffffffffffffffffff1681526020019081526020016000206040518060800160405290816000820154815260200160018201548152602001600282015481526020016003820160009054906101000a900465ffffffffffff1665ffffffffffff1665ffffffffffff1681525050905042816040015110156101f5576000808373ffffffffffffffffffffffffffffffffffffffff1673ffffffffffffffffffffffffffffffffffffffff168152602001908152602001600020600080820160009055600182016000905560028201600090556003820160006101000a81549065ffffffffffff021916905550508173ffffffffffffffffffffffffffffffffffffffff166108fc826060015165ffffffffffff168360000151039081150290604051600060405180830381858888f193505050501580156101f3573d6000803e3d6000fd5b505b5050565b600160008c73ffffffffffffffffffffffffffffffffffffffff1673ffffffffffffffffffffffffffffffffffffffff16815260200190815260200160002060008765ffffffffffff1665ffffffffffff16815260200190815260200160002060008665ffffffffffff1665ffffffffffff16815260200190815260200160002060009054906101000a900460ff161561029257600080fd5b6102db8b338a79ffffffffffffffffffffffffffffffffffffffffffffffffffff19168a79ffffffffffffffffffffffffffffffffffffffffffffffffffff19168787876106d9565b6102e457600080fd5b600061035e8b6000015161034e8b8b60038f6040516020016103069190610eee565b6040516020818303038152906040526040516103229190610eee565b602060405180830381855afa15801561033f573d6000803e3d6000fd5b5050506040515160601b6107be565b8965ffffffffffff166001610835565b90506103928b602001516103826103748461091c565b61037d85610946565b610956565b8865ffffffffffff166002610835565b905061041d8b6040015161040d6103a88461091c565b6003336103b487610946565b6040516020016103c5929190610e85565b6040516020818303038152906040526040516103e19190610eee565b602060405180830381855afa1580156103fe573d6000803e3d6000fd5b5050506040515160601b610956565b8765ffffffffffff166003610835565b9050610427610a13565b6000808e73ffffffffffffffffffffffffffffffffffffffff1673ffffffffffffffffffffffffffffffffffffffff1681526020019081526020016000206040518060800160405290816000820154815260200160018201548152602001600282015481526020016003820160009054906101000a900465ffffffffffff1665ffffffffffff1665ffffffffffff168152505090506104c582610946565b6bffffffffffffffffffffffff1916816020015114156105f65760018060008f73ffffffffffffffffffffffffffffffffffffffff1673ffffffffffffffffffffffffffffffffffffffff16815260200190815260200160002060008a65ffffffffffff1665ffffffffffff16815260200190815260200160002060008965ffffffffffff1665ffffffffffff16815260200190815260200160002060006101000a81548160ff0219169083151502179055508960d01c816060015101816060019065ffffffffffff16908165ffffffffffff168152505060003390508073ffffffffffffffffffffffffffffffffffffffff166108fc8c60d01c65ffffffffffff169081150290604051600060405180830381858888f193505050501580156105f3573d6000803e3d6000fd5b50505b50505050505050505050505050565b6000341161061257600080fd5b6040518060800160405280348152602001836bffffffffffffffffffffffff19168152602001828152602001600065ffffffffffff168152506000803373ffffffffffffffffffffffffffffffffffffffff1673ffffffffffffffffffffffffffffffffffffffff16815260200190815260200160002060008201518160000155602082015181600101556040820151816002015560608201518160030160006101000a81548165ffffffffffff021916908365ffffffffffff1602179055509050505050565b60008773ffffffffffffffffffffffffffffffffffffffff166001600389898960405160200161070b93929190610eb1565b6040516020818303038152906040526040516107279190610eee565b602060405180830381855afa158015610744573d6000803e3d6000fd5b5050506040515160601b8686866040516000815260200160405260405161076e9493929190610f42565b6020604051602081039080840390855afa158015610790573d6000803e3d6000fd5b5050506020604051035173ffffffffffffffffffffffffffffffffffffffff16149050979650505050505050565b6000808360d01c65ffffffffffff1660308660d01c65ffffffffffff166bffffffffffffffffffffffff16901b1760a01b905060008360601c73ffffffffffffffffffffffffffffffffffffffff1660a08360a01c6bffffffffffffffffffffffff16901b1760001b905080925050509392505050565b60008084905060008090505b86518165ffffffffffff16101561090f576000600182019050600080600061088689878d8865ffffffffffff168151811061087857fe5b60200260200101518b610994565b9250925092506108ef8360038685856040516020016108a793929190610f05565b6040516020818303038152906040526040516108c39190610eee565b602060405180830381855afa1580156108e0573d6000803e3d6000fd5b5050506040515160601b610956565b9550600289816108fb57fe5b049850505050508080600101915050610841565b5080915050949350505050565b600060308260d01c65ffffffffffff166bffffffffffffffffffffffff16901b60a01b9050919050565b60008160001c60601b9050919050565b60008160601c73ffffffffffffffffffffffffffffffffffffffff1660a08460a01c6bffffffffffffffffffffffff16901b1760001b905092915050565b6000806000808590506000879050600060028a816109ae57fe5b0614156109c3578194508793508692506109cd565b8094508693508792505b60018660ff1614610a075760008160d01c8360d01c0165ffffffffffff1690506030816bffffffffffffffffffffffff16901b60a01b9550505b50509450945094915050565b6040518060800160405280600081526020016000801916815260200160008152602001600065ffffffffffff1681525090565b600081359050610a55816111b7565b92915050565b600082601f830112610a6c57600080fd5b8135610a7f610a7a82610fb4565b610f87565b91508181835260208401935060208101905083856020840282011115610aa457600080fd5b60005b83811015610ad45781610aba8882610af3565b845260208401935060208301925050600181019050610aa7565b5050505092915050565b600081359050610aed816111ce565b92915050565b600081359050610b02816111e5565b92915050565b600081359050610b17816111fc565b92915050565b600082601f830112610b2e57600080fd5b8135610b41610b3c82610fdc565b610f87565b91508082526020830160208301858383011115610b5d57600080fd5b610b688382846110ff565b50505092915050565b600060608284031215610b8357600080fd5b610b8d6060610f87565b9050600082013567ffffffffffffffff811115610ba957600080fd5b610bb584828501610a5b565b600083015250602082013567ffffffffffffffff811115610bd557600080fd5b610be184828501610a5b565b602083015250604082013567ffffffffffffffff811115610c0157600080fd5b610c0d84828501610a5b565b60408301525092915050565b600081359050610c2881611213565b92915050565b600081359050610c3d8161122a565b92915050565b600081359050610c5281611241565b92915050565b60008060008060008060008060008060006101608c8e031215610c7a57600080fd5b6000610c888e828f01610a46565b9b505060208c013567ffffffffffffffff811115610ca557600080fd5b610cb18e828f01610b71565b9a505060408c013567ffffffffffffffff811115610cce57600080fd5b610cda8e828f01610b1d565b9950506060610ceb8e828f01610b08565b9850506080610cfc8e828f01610b08565b97505060a0610d0d8e828f01610c2e565b96505060c0610d1e8e828f01610c2e565b95505060e0610d2f8e828f01610c2e565b945050610100610d418e828f01610c43565b935050610120610d538e828f01610af3565b925050610140610d658e828f01610af3565b9150509295989b509295989b9093969950565b60008060408385031215610d8b57600080fd5b6000610d9985828601610ade565b9250506020610daa85828601610c19565b9150509250929050565b610dc5610dc082611030565b611153565b82525050565b610ddc610dd78261101e565b611141565b82525050565b610df3610dee82611042565b611165565b82525050565b610e02816110ed565b82525050565b610e118161106e565b82525050565b610e28610e238261106e565b61116f565b82525050565b6000610e3982611008565b610e438185611013565b9350610e5381856020860161110e565b80840191505092915050565b610e70610e6b826110ce565b61118b565b82525050565b610e7f816110e0565b82525050565b6000610e918285610db4565b601482019150610ea18284610de2565b6014820191508190509392505050565b6000610ebd8286610dcb565b601482019150610ecd8285610de2565b601482019150610edd8284610de2565b601482019150819050949350505050565b6000610efa8284610e2e565b915081905092915050565b6000610f118286610e5f565b600682019150610f218285610e17565b602082019150610f318284610e17565b602082019150819050949350505050565b6000608082019050610f576000830187610df9565b610f646020830186610e76565b610f716040830185610e08565b610f7e6060830184610e08565b95945050505050565b6000604051905081810181811067ffffffffffffffff82111715610faa57600080fd5b8060405250919050565b600067ffffffffffffffff821115610fcb57600080fd5b602082029050602081019050919050565b600067ffffffffffffffff821115610ff357600080fd5b601f19601f8301169050602081019050919050565b600081519050919050565b600081905092915050565b6000611029826110a4565b9050919050565b600061103b826110a4565b9050919050565b60007fffffffffffffffffffffffffffffffffffffffff00000000000000000000000082169050919050565b6000819050919050565b60007fffffffffffff000000000000000000000000000000000000000000000000000082169050919050565b600073ffffffffffffffffffffffffffffffffffffffff82169050919050565b6000819050919050565b600065ffffffffffff82169050919050565b600060ff82169050919050565b60006110f882611042565b9050919050565b82818337600083830152505050565b60005b8381101561112c578082015181840152602081019050611111565b8381111561113b576000848401525b50505050565b600061114c82611179565b9050919050565b600061115e82611179565b9050919050565b6000819050919050565b6000819050919050565b6000611184826111aa565b9050919050565b60006111968261119d565b9050919050565b60008160d01b9050919050565b60008160601b9050919050565b6111c08161101e565b81146111cb57600080fd5b50565b6111d781611042565b81146111e257600080fd5b50565b6111ee8161106e565b81146111f957600080fd5b50565b61120581611078565b811461121057600080fd5b50565b61121c816110c4565b811461122757600080fd5b50565b611233816110ce565b811461123e57600080fd5b50565b61124a816110e0565b811461125557600080fd5b5056fea365627a7a7231582082b69e0bec72cda22b889aeafc8e30a79e873bdf06ecdc4d23b2b5218caa04be6c6578706572696d656e74616cf564736f6c63430005100040",
  "source": "pragma solidity >=0.5.2 <0.8.4;\npragma experimental ABIEncoderV2;\n\ncontract Market {\n\n    struct Contract {\n        uint256 amount;\n        bytes32 lock;\n        uint256 expire;\n        uint48 claimed_value;\n    }\n    \n    struct Witness {\n        bytes32[] W1;\n        bytes32[] W2;\n        bytes32[] W3;\n    }\n\n    mapping(address => Contract) contracts;\n    mapping (address => mapping (uint48 => mapping(uint48=>bool))) private claims;\n    \n    event NewContract(uint256 index);\n    event Root(bytes32 proofElement);\n    event Root20(bytes20 proofElement);\n    event Test(uint48 test);\n\n    function newContract(bytes20 lock, uint256 expire ) public payable {\n        require(msg.value > 0);\n        contracts[msg.sender] = Contract(\n            {\n                amount: msg.value,\n                lock:lock,\n                expire:expire,\n                claimed_value:0\n            }\n        );\n    }\n\n    function _concat2(bytes12 a, bytes20 b) internal pure returns (bytes32) {\n        return bytes32((uint256(uint96(a)) << 160) | uint160(b));\n    }\n\n    function _concat3(\n        bytes6 a,\n        bytes6 b,\n        bytes20 c\n    ) internal pure returns (bytes32) {\n        bytes12 x = bytes12((uint96(uint48(a)) << 48) | uint48(b));\n        bytes32 y = bytes32((uint256(uint96(x)) << 160) | uint160(c));\n        return y;\n    }\n\n    function _F(\n        uint256 j,\n        bytes32 ln,\n        bytes32 w,\n        uint8 layer\n    )\n        internal\n        pure\n        returns (\n            bytes12 p1,\n            bytes32 p2,\n            bytes32 p3\n        )\n    {\n        bytes12 w1 = bytes12(w);\n        bytes12 ln1 = bytes12(ln);\n        if (j % 2 == 0) {\n            p1 = w1;\n            p2 = ln;\n            p3 = w;\n        } else {\n            p1 = ln1;\n            p2 = w;\n            p3 = ln;\n        }\n        if (layer != 1) {\n            uint96 sum = uint48(bytes6(w1)) + uint48(bytes6(ln1));\n            p1 = bytes12(sum << 48);\n        }\n    }\n\n    function _k(bytes32 l) internal pure returns (bytes12) {\n        return bytes12(uint96(uint48(bytes6(l))) << 48);\n    }\n\n    function _x(bytes32 l) internal pure returns (bytes20) {\n        return bytes20(uint160(uint256(l)));\n    }\n\n    function refund() public payable {\n        address payable owner = msg.sender;\n        Contract memory c = contracts[owner];\n        if(c.expire < block.timestamp){\n            delete contracts[owner];\n            // delete claims[owner];\n            owner.transfer(c.amount - c.claimed_value);\n        }\n    }\n    \n     function is_valid_signature(\n        address signer,\n        address sender,\n        bytes20 value,\n        bytes20 expire,\n        uint8 v,\n        bytes32 r,\n        bytes32 s\n    ) internal pure returns(bool) {\n        return ecrecover( ripemd160(abi.encodePacked(sender, value, expire)), v, r, s) == signer;\n    }\n    \n    \n    function verify(\n        bytes32[] memory W,\n        bytes32 h,\n        uint256 j,\n        uint8 layer\n    ) internal  pure returns (bytes32) {\n        bytes32 ln = h;\n\n        for (uint48 i = 0; i < W.length; i++) {\n            uint48 height = i + 1;\n\n            (bytes12 p1, bytes32 p2, bytes32 p3) = _F(j, ln, W[i], layer);\n            ln = _concat2(p1, ripemd160(abi.encodePacked(height, p2, p3)));\n\n            j = j / 2;\n        }\n        return ln;\n    }\n\n    function claim(\n        address owner,\n        Witness memory witness,\n        bytes memory x1,\n        bytes6 v1,\n        bytes6 e1,\n        uint48 i1,\n        uint48 i2,\n        uint48 i3, // bytes32 sig\n        uint8 v, bytes32 r, bytes32 s\n    ) public payable {\n\n        //already claimed check\n        require(!claims[owner][i1][i2]);\n\n        //signature verification\n        require(is_valid_signature(owner, msg.sender, v1, e1, v, r, s));\n\n        bytes32 l;\n        {\n        //level alpha check\n        l = verify(\n            witness.W1,\n            _concat3(v1, e1, ripemd160(abi.encodePacked(x1))),\n            i1,\n            1\n        );\n\n        //level beta check\n        l = verify(\n            witness.W2,\n            _concat2(_k(l), _x(l)),\n            i2,\n            2\n        );\n\n        //level theta check\n        l = verify(\n            witness.W3,\n            _concat2(_k(l), ripemd160(abi.encodePacked(msg.sender, _x(l)))),\n            i3,\n            3\n        );\n        }\n        \n        Contract memory c = contracts[owner];\n        //root lock verification\n        if(c.lock == _x(l)){\n            claims[owner][i1][i2] = true; // add to claimed list\n            c.claimed_value = c.claimed_value + uint48(v1); \n            address payable sender = msg.sender;\n            sender.transfer(uint48(v1)); // transfer money\n        }\n\n    }\n}",
  "sourcePath": "/home/anupa/Projects/Service-Market/contracts/Market.sol",
  "compiler": {
    "name": "solc",
    "version": "0.5.16+commit.9c3226ce.Emscripten.clang"
  },
  "schemaVersion": "3.4.1",
  "updatedAt": "2021-08-19T19:49:17.149Z",
  "devdoc": {
    "methods": {}
  },
  "userdoc": {
    "methods": {}
  }
}