{
  "contractName": "Market",
  "abi": [
    {
      "anonymous": false,
      "inputs": [
        {
          "indexed": false,
          "internalType": "uint256",
          "name": "index",
          "type": "uint256"
        }
      ],
      "name": "NewContract",
      "type": "event"
    },
    {
      "anonymous": false,
      "inputs": [
        {
          "indexed": false,
          "internalType": "bytes32",
          "name": "proofElement",
          "type": "bytes32"
        }
      ],
      "name": "Root",
      "type": "event"
    },
    {
      "constant": false,
      "inputs": [
        {
          "internalType": "bytes32",
          "name": "lock",
          "type": "bytes32"
        },
        {
          "internalType": "uint256",
          "name": "expire",
          "type": "uint256"
        }
      ],
      "name": "newContract",
      "outputs": [],
      "payable": true,
      "stateMutability": "payable",
      "type": "function"
    },
    {
      "constant": true,
      "inputs": [
        {
          "internalType": "address",
          "name": "addr",
          "type": "address"
        },
        {
          "internalType": "uint256",
          "name": "index",
          "type": "uint256"
        }
      ],
      "name": "getContract",
      "outputs": [
        {
          "internalType": "uint256",
          "name": "",
          "type": "uint256"
        },
        {
          "internalType": "bytes32",
          "name": "",
          "type": "bytes32"
        },
        {
          "internalType": "uint256",
          "name": "",
          "type": "uint256"
        }
      ],
      "payable": false,
      "stateMutability": "view",
      "type": "function"
    },
    {
      "constant": true,
      "inputs": [
        {
          "internalType": "address",
          "name": "a",
          "type": "address"
        }
      ],
      "name": "getCount",
      "outputs": [
        {
          "internalType": "uint256",
          "name": "",
          "type": "uint256"
        }
      ],
      "payable": false,
      "stateMutability": "view",
      "type": "function"
    },
    {
      "constant": false,
      "inputs": [
        {
          "internalType": "bytes32[]",
          "name": "W",
          "type": "bytes32[]"
        },
        {
          "internalType": "bytes32",
          "name": "h",
          "type": "bytes32"
        },
        {
          "internalType": "uint256",
          "name": "j",
          "type": "uint256"
        }
      ],
      "name": "verify",
      "outputs": [
        {
          "internalType": "bytes32",
          "name": "",
          "type": "bytes32"
        }
      ],
      "payable": false,
      "stateMutability": "nonpayable",
      "type": "function"
    }
  ],
  "bytecode": "0x608060405234801561001057600080fd5b50610754806100206000396000f3fe60806040526004361061003f5760003560e01c80632879971e146100445780634f0cd27b14610131578063586db74c14610196578063aad55726146101ce575b600080fd5b34801561005057600080fd5b5061011b6004803603606081101561006757600080fd5b810190808035906020019064010000000081111561008457600080fd5b82018360208201111561009657600080fd5b803590602001918460208302840111640100000000831117156100b857600080fd5b919080806020026020016040519081016040528093929190818152602001838360200280828437600081840152601f19601f820116905080830192505050505050509192919290803590602001909291908035906020019092919050505061024b565b6040518082815260200191505060405180910390f35b34801561013d57600080fd5b506101806004803603602081101561015457600080fd5b81019080803573ffffffffffffffffffffffffffffffffffffffff16906020019092919050505061048f565b6040518082815260200191505060405180910390f35b6101cc600480360360408110156101ac57600080fd5b8101908080359060200190929190803590602001909291905050506104da565b005b3480156101da57600080fd5b50610227600480360360408110156101f157600080fd5b81019080803573ffffffffffffffffffffffffffffffffffffffff16906020019092919080359060200190929190505050610611565b60405180848152602001838152602001828152602001935050505060405180910390f35b60008083905060008090505b855181101561048357600086828151811061026e57fe5b602002602001015190506000606088848151811061028857fe5b6020026020010151901b90506000600287816102a057fe5b0614156103895761038282600360018601878560405160200180848152602001838152602001826bffffffffffffffffffffffff19166bffffffffffffffffffffffff1916815260140193505050506040516020818303038152906040526040518082805190602001908083835b60208310610331578051825260208201915060208101905060208303925061030e565b6001836020036101000a038019825116818451168082178552505050505050905001915050602060405180830381855afa158015610373573d6000803e3d6000fd5b5050506040515160601b6106bd565b9350610467565b61046482600360018601848860405160200180848152602001836bffffffffffffffffffffffff19166bffffffffffffffffffffffff1916815260140182815260200193505050506040516020818303038152906040526040518082805190602001908083835b6020831061041357805182526020820191506020810190506020830392506103f0565b6001836020036101000a038019825116818451168082178552505050505050905001915050602060405180830381855afa158015610455573d6000803e3d6000fd5b5050506040515160601b6106bd565b93505b6002868161047157fe5b04955050508080600101915050610257565b50809150509392505050565b60008060008373ffffffffffffffffffffffffffffffffffffffff1673ffffffffffffffffffffffffffffffffffffffff168152602001908152602001600020805490509050919050565b600034116104e757600080fd5b6000803373ffffffffffffffffffffffffffffffffffffffff1673ffffffffffffffffffffffffffffffffffffffff16815260200190815260200160002060405180606001604052803481526020018481526020018381525090806001815401808255809150509060018203906000526020600020906003020160009091929091909150600082015181600001556020820151816001015560408201518160020155505050600060016000803373ffffffffffffffffffffffffffffffffffffffff1673ffffffffffffffffffffffffffffffffffffffff168152602001908152602001600020805490500390507f213f74f9fdf2ccdedecee95dd0d457e13fb26685ef6644ece69d4a853e6141f8816040518082815260200191505060405180910390a1505050565b600080600061061e6106fb565b6000808773ffffffffffffffffffffffffffffffffffffffff1673ffffffffffffffffffffffffffffffffffffffff168152602001908152602001600020858154811061066757fe5b906000526020600020906003020160405180606001604052908160008201548152602001600182015481526020016002820154815250509050806000015181602001518260400151935093509350509250925092565b60008160601c73ffffffffffffffffffffffffffffffffffffffff1660608460a01c6bffffffffffffffffffffffff16901b1760001b905092915050565b6040518060600160405280600081526020016000801916815260200160008152509056fea265627a7a723158200155c25b39a012aa21a16e48934b88acc20708f2f45e85dd116952168616e69d64736f6c63430005100032",
  "source": "pragma solidity >=0.5.2 <0.8.4;\n\ncontract Market {\n    struct Contract {\n        uint256 amount;\n        bytes32 lock;\n        uint256 expire;\n    }\n\n    mapping(address => Contract[]) contracts;\n\n    event NewContract(uint256 index);\n    event Root(bytes32 proofElement);\n\n    function newContract(bytes32 lock, uint256 expire) public payable {\n        require(msg.value > 0);\n\n        contracts[msg.sender].push(Contract(msg.value, lock, expire));\n        uint256 id = contracts[msg.sender].length - 1;\n        emit NewContract(id);\n    }\n\n    function getContract(address addr, uint256 index)\n        public\n        view\n        returns (\n            uint256,\n            bytes32,\n            uint256\n        )\n    {\n        Contract memory c = contracts[addr][index];\n        return (c.amount, c.lock, c.expire);\n    }\n\n    function getCount(address a) public view returns (uint256) {\n        return contracts[a].length;\n    }\n\n    function _concat(bytes12 a, bytes20 b) internal pure returns (bytes32) {\n        return bytes32((uint256(uint96(a)) << 96) | uint160(b));\n    }\n\n    function verify(\n        bytes32[] memory W,\n        bytes32 h,\n        uint256 j\n    ) public returns (bytes32) {\n        bytes32 ln = h;\n\n        for (uint256 i = 0; i < W.length; i++) {\n            bytes12 w1 = bytes12(W[i]);\n            bytes20 w2 = bytes20(W[i] << 96);\n\n            if (j % 2 == 0) {\n                ln = _concat(\n                    w1,\n                    ripemd160(abi.encodePacked((i + 1), ln, w2))\n                );\n            } else {\n                ln = _concat(\n                    w1,\n                    ripemd160(abi.encodePacked((i + 1), w2, ln))\n                );\n            }\n\n            j = j / 2;\n        }\n\n        return ln;\n    }\n}\n\n// https://ethereum.stackexchange.com/questions/67644/how-to-split-bytes32-into-multiples-of-8-in-solidity\n",
  "sourcePath": "/home/anupa/Projects/Service-Market/contracts/Market.sol",
  "compiler": {
    "name": "solc",
    "version": "0.5.16+commit.9c3226ce.Emscripten.clang"
  },
  "schemaVersion": "3.3.2",
  "updatedAt": "2021-06-24T01:03:03.746Z",
  "devdoc": {
    "methods": {}
  },
  "userdoc": {
    "methods": {}
  }
}