{
  "contractName": "Market",
  "abi": [
    {
      "anonymous": false,
      "inputs": [
        {
          "indexed": false,
          "internalType": "uint256",
          "name": "index",
          "type": "uint256"
        }
      ],
      "name": "NewContract",
      "type": "event"
    },
    {
      "anonymous": false,
      "inputs": [
        {
          "indexed": false,
          "internalType": "bytes32",
          "name": "proofElement",
          "type": "bytes32"
        }
      ],
      "name": "Root",
      "type": "event"
    },
    {
      "constant": false,
      "inputs": [
        {
          "internalType": "bytes20",
          "name": "lock",
          "type": "bytes20"
        },
        {
          "internalType": "uint256",
          "name": "expire",
          "type": "uint256"
        }
      ],
      "name": "newContract",
      "outputs": [],
      "payable": true,
      "stateMutability": "payable",
      "type": "function"
    },
    {
      "constant": true,
      "inputs": [
        {
          "internalType": "address",
          "name": "addr",
          "type": "address"
        },
        {
          "internalType": "uint256",
          "name": "index",
          "type": "uint256"
        }
      ],
      "name": "getContract",
      "outputs": [
        {
          "internalType": "uint256",
          "name": "",
          "type": "uint256"
        },
        {
          "internalType": "bytes32",
          "name": "",
          "type": "bytes32"
        },
        {
          "internalType": "uint256",
          "name": "",
          "type": "uint256"
        }
      ],
      "payable": false,
      "stateMutability": "view",
      "type": "function"
    },
    {
      "constant": true,
      "inputs": [
        {
          "internalType": "address",
          "name": "a",
          "type": "address"
        }
      ],
      "name": "getCount",
      "outputs": [
        {
          "internalType": "uint256",
          "name": "",
          "type": "uint256"
        }
      ],
      "payable": false,
      "stateMutability": "view",
      "type": "function"
    },
    {
      "constant": false,
      "inputs": [
        {
          "internalType": "bytes32[]",
          "name": "W",
          "type": "bytes32[]"
        },
        {
          "internalType": "bytes32",
          "name": "h",
          "type": "bytes32"
        },
        {
          "internalType": "uint256",
          "name": "j",
          "type": "uint256"
        },
        {
          "internalType": "uint8",
          "name": "layer",
          "type": "uint8"
        }
      ],
      "name": "verify",
      "outputs": [
        {
          "internalType": "bytes32",
          "name": "",
          "type": "bytes32"
        }
      ],
      "payable": false,
      "stateMutability": "nonpayable",
      "type": "function"
    },
    {
      "constant": false,
      "inputs": [
        {
          "internalType": "address",
          "name": "owner",
          "type": "address"
        },
        {
          "internalType": "uint48",
          "name": "index",
          "type": "uint48"
        },
        {
          "internalType": "bytes32[]",
          "name": "W1",
          "type": "bytes32[]"
        },
        {
          "internalType": "bytes32[]",
          "name": "W2",
          "type": "bytes32[]"
        },
        {
          "internalType": "bytes32[]",
          "name": "W3",
          "type": "bytes32[]"
        },
        {
          "internalType": "bytes",
          "name": "x1",
          "type": "bytes"
        },
        {
          "internalType": "bytes6",
          "name": "v1",
          "type": "bytes6"
        },
        {
          "internalType": "bytes6",
          "name": "e1",
          "type": "bytes6"
        },
        {
          "internalType": "uint48",
          "name": "i1",
          "type": "uint48"
        },
        {
          "internalType": "uint48",
          "name": "i2",
          "type": "uint48"
        },
        {
          "internalType": "uint48",
          "name": "i3",
          "type": "uint48"
        }
      ],
      "name": "claim",
      "outputs": [],
      "payable": false,
      "stateMutability": "nonpayable",
      "type": "function"
    }
  ],
  "bytecode": "0x608060405234801561001057600080fd5b50610f5a806100206000396000f3fe60806040526004361061004a5760003560e01c80634f0cd27b1461004f5780636f14d9f4146100b45780638f97bc2b146101ae578063aad55726146101f5578063aebe045214610272575b600080fd5b34801561005b57600080fd5b5061009e6004803603602081101561007257600080fd5b81019080803573ffffffffffffffffffffffffffffffffffffffff1690602001909291905050506105ad565b6040518082815260200191505060405180910390f35b3480156100c057600080fd5b50610198600480360360808110156100d757600080fd5b81019080803590602001906401000000008111156100f457600080fd5b82018360208201111561010657600080fd5b8035906020019184602083028401116401000000008311171561012857600080fd5b919080806020026020016040519081016040528093929190818152602001838360200280828437600081840152601f19601f8201169050808301925050505050505091929192908035906020019092919080359060200190929190803560ff1690602001909291905050506105f8565b6040518082815260200191505060405180910390f35b6101f3600480360360408110156101c457600080fd5b8101908080356bffffffffffffffffffffffff1916906020019092919080359060200190929190505050610780565b005b34801561020157600080fd5b5061024e6004803603604081101561021857600080fd5b81019080803573ffffffffffffffffffffffffffffffffffffffff169060200190929190803590602001909291905050506108c6565b60405180848152602001838152602001828152602001935050505060405180910390f35b34801561027e57600080fd5b506105ab600480360361016081101561029657600080fd5b81019080803573ffffffffffffffffffffffffffffffffffffffff169060200190929190803565ffffffffffff169060200190929190803590602001906401000000008111156102e557600080fd5b8201836020820111156102f757600080fd5b8035906020019184602083028401116401000000008311171561031957600080fd5b919080806020026020016040519081016040528093929190818152602001838360200280828437600081840152601f19601f8201169050808301925050505050505091929192908035906020019064010000000081111561037957600080fd5b82018360208201111561038b57600080fd5b803590602001918460208302840111640100000000831117156103ad57600080fd5b919080806020026020016040519081016040528093929190818152602001838360200280828437600081840152601f19601f8201169050808301925050505050505091929192908035906020019064010000000081111561040d57600080fd5b82018360208201111561041f57600080fd5b8035906020019184602083028401116401000000008311171561044157600080fd5b919080806020026020016040519081016040528093929190818152602001838360200280828437600081840152601f19601f820116905080830192505050505050509192919290803590602001906401000000008111156104a157600080fd5b8201836020820111156104b357600080fd5b803590602001918460018302840111640100000000831117156104d557600080fd5b91908080601f016020809104026020016040519081016040528093929190818152602001838380828437600081840152601f19601f820116905080830192505050505050509192919290803579ffffffffffffffffffffffffffffffffffffffffffffffffffff19169060200190929190803579ffffffffffffffffffffffffffffffffffffffffffffffffffff19169060200190929190803565ffffffffffff169060200190929190803565ffffffffffff169060200190929190803565ffffffffffff169060200190929190505050610972565b005b60008060008373ffffffffffffffffffffffffffffffffffffffff1673ffffffffffffffffffffffffffffffffffffffff168152602001908152602001600020805490509050919050565b60008084905060008090505b86518165ffffffffffff16101561073c576000600182019050600080600061064989878d8865ffffffffffff168151811061063b57fe5b60200260200101518b610d93565b92509250925061071c836003868585604051602001808465ffffffffffff1665ffffffffffff1660d01b815260060183815260200182815260200193505050506040516020818303038152906040526040518082805190602001908083835b602083106106cb57805182526020820191506020810190506020830392506106a8565b6001836020036101000a038019825116818451168082178552505050505050905001915050602060405180830381855afa15801561070d573d6000803e3d6000fd5b5050506040515160601b610e12565b95506002898161072857fe5b049850505050508080600101915050610604565b507f83b8202f20aed46d2b69075fc699d5cd1a2046220db185a423fab298e0801b6c816040518082815260200191505060405180910390a180915050949350505050565b6000341161078d57600080fd5b6000803373ffffffffffffffffffffffffffffffffffffffff1673ffffffffffffffffffffffffffffffffffffffff1681526020019081526020016000206040518060600160405280348152602001846bffffffffffffffffffffffff191681526020018381525090806001815401808255809150509060018203906000526020600020906003020160009091929091909150600082015181600001556020820151816001015560408201518160020155505050600060016000803373ffffffffffffffffffffffffffffffffffffffff1673ffffffffffffffffffffffffffffffffffffffff168152602001908152602001600020805490500390507f213f74f9fdf2ccdedecee95dd0d457e13fb26685ef6644ece69d4a853e6141f8816040518082815260200191505060405180910390a1505050565b60008060006108d3610f01565b6000808773ffffffffffffffffffffffffffffffffffffffff1673ffffffffffffffffffffffffffffffffffffffff168152602001908152602001600020858154811061091c57fe5b906000526020600020906003020160405180606001604052908160008201548152602001600182015481526020016002820154815250509050806000015181602001518260400151935093509350509250925092565b6000610a7e8a610a6e888860038c6040516020018082805190602001908083835b602083106109b65780518252602082019150602081019050602083039250610993565b6001836020036101000a0380198251168184511680821785525050505050509050019150506040516020818303038152906040526040518082805190602001908083835b60208310610a1d57805182526020820191506020810190506020830392506109fa565b6001836020036101000a038019825116818451168082178552505050505050905001915050602060405180830381855afa158015610a5f573d6000803e3d6000fd5b5050506040515160601b610e50565b8665ffffffffffff1660016105f8565b9050610b6c89610b5c610a9084610ec7565b6003610a9b86610ef1565b60405160200180826bffffffffffffffffffffffff19166bffffffffffffffffffffffff191681526014019150506040516020818303038152906040526040518082805190602001908083835b60208310610b0b5780518252602082019150602081019050602083039250610ae8565b6001836020036101000a038019825116818451168082178552505050505050905001915050602060405180830381855afa158015610b4d573d6000803e3d6000fd5b5050506040515160601b610e12565b8565ffffffffffff1660026105f8565b9050610c9188610c81610b7e84610ec7565b600333610b8a87610ef1565b604051602001808373ffffffffffffffffffffffffffffffffffffffff1673ffffffffffffffffffffffffffffffffffffffff1660601b8152601401826bffffffffffffffffffffffff19166bffffffffffffffffffffffff19168152601401925050506040516020818303038152906040526040518082805190602001908083835b60208310610c305780518252602082019150602081019050602083039250610c0d565b6001836020036101000a038019825116818451168082178552505050505050905001915050602060405180830381855afa158015610c72573d6000803e3d6000fd5b5050506040515160601b610e12565b8465ffffffffffff1660036105f8565b9050610c9b610f01565b6000808e73ffffffffffffffffffffffffffffffffffffffff1673ffffffffffffffffffffffffffffffffffffffff1681526020019081526020016000208c65ffffffffffff1681548110610cec57fe5b9060005260206000209060030201604051806060016040529081600082015481526020016001820154815260200160028201548152505090508181602001511415610d84573373ffffffffffffffffffffffffffffffffffffffff166108fc8860d01c65ffffffffffff169081150290604051600060405180830381858888f19350505050158015610d82573d6000803e3d6000fd5b505b50505050505050505050505050565b6000806000808590506000879050600060028a81610dad57fe5b061415610dc257819450879350869250610dcc565b8094508693508792505b60018660ff1614610e065760008160d01c8360d01c0165ffffffffffff1690506030816bffffffffffffffffffffffff16901b60a01b9550505b50509450945094915050565b60008160601c73ffffffffffffffffffffffffffffffffffffffff1660a08460a01c6bffffffffffffffffffffffff16901b1760001b905092915050565b6000808360d01c65ffffffffffff1660308660d01c65ffffffffffff166bffffffffffffffffffffffff16901b1760a01b905060008360601c73ffffffffffffffffffffffffffffffffffffffff1660a08360a01c6bffffffffffffffffffffffff16901b1760001b905080925050509392505050565b600060308260d01c65ffffffffffff166bffffffffffffffffffffffff16901b60a01b9050919050565b60008160001c60601b9050919050565b6040518060600160405280600081526020016000801916815260200160008152509056fea265627a7a72315820906f4d20d519b09df5b494ea5653c48314e6793e6e45c78af06d16c1d4c84a3164736f6c63430005100032",
  "source": "pragma solidity >=0.5.2 <0.8.4;\n\ncontract Market {\n    struct Contract {\n        uint256 amount;\n        bytes32 lock;\n        uint256 expire;\n    }\n\n    mapping(address => Contract[]) contracts;\n\n    event NewContract(uint256 index);\n    event Root(bytes32 proofElement);\n\n    function newContract(bytes20 lock, uint256 expire ) public payable {\n        require(msg.value > 0);\n        contracts[msg.sender].push(Contract(msg.value, lock, expire));\n        uint256 id = contracts[msg.sender].length - 1;\n        emit NewContract(id);\n    }\n\n    function getContract(address addr, uint256 index)\n        public\n        view\n        returns (\n            uint256,\n            bytes32,\n            uint256\n        )\n    {\n        Contract memory c = contracts[addr][index];\n        return (c.amount, c.lock, c.expire);\n    }\n\n    function getCount(address a) public view returns (uint256) {\n        return contracts[a].length;\n    }\n\n    function _concat2(bytes12 a, bytes20 b) internal pure returns (bytes32) {\n        return bytes32((uint256(uint96(a)) << 160) | uint160(b));\n    }\n\n    function _concat3(\n        bytes6 a,\n        bytes6 b,\n        bytes20 c\n    ) internal pure returns (bytes32) {\n        bytes12 x = bytes12((uint96(uint48(a)) << 48) | uint48(b));\n        bytes32 y = bytes32((uint256(uint96(x)) << 160) | uint160(c));\n        return y;\n    }\n\n    function _F(\n        uint256 j,\n        bytes32 ln,\n        bytes32 w,\n        uint8 layer\n    )\n        internal\n        pure\n        returns (\n            bytes12 p1,\n            bytes32 p2,\n            bytes32 p3\n        )\n    {\n        bytes12 w1 = bytes12(w);\n        bytes12 ln1 = bytes12(ln);\n        if (j % 2 == 0) {\n            p1 = w1;\n            p2 = ln;\n            p3 = w;\n        } else {\n            p1 = ln1;\n            p2 = w;\n            p3 = ln;\n        }\n        if (layer != 1) {\n            uint96 sum = uint48(bytes6(w1)) + uint48(bytes6(ln1));\n            p1 = bytes12(sum << 48);\n        }\n    }\n\n    function _k(bytes32 l) internal pure returns (bytes12) {\n        return bytes12(uint96(uint48(bytes6(l))) << 48);\n    }\n\n    function _x(bytes32 l) internal pure returns (bytes20) {\n        return bytes20(uint160(uint256(l)));\n    }\n\n    function verify(\n        bytes32[] memory W,\n        bytes32 h,\n        uint256 j,\n        uint8 layer\n    ) public returns (bytes32) {\n        bytes32 ln = h;\n\n        for (uint48 i = 0; i < W.length; i++) {\n            uint48 height = i + 1;\n\n            (bytes12 p1, bytes32 p2, bytes32 p3) = _F(j, ln, W[i], layer);\n            ln = _concat2(p1, ripemd160(abi.encodePacked(height, p2, p3)));\n\n            j = j / 2;\n        }\n        emit Root(ln);\n        return ln;\n    }\n\n    function claim(\n        address owner, \n        uint48 index,\n        bytes32[] memory W1,\n        bytes32[] memory W2,\n        bytes32[] memory W3,\n        bytes memory x1,\n        bytes6 v1,\n        bytes6 e1,\n        uint48 i1,\n        uint48 i2,\n        uint48 i3 // bytes32 sig\n    ) public {\n        bytes32 l = verify(\n            W1,\n            _concat3(v1, e1, ripemd160(abi.encodePacked(x1))),\n            i1,\n            1\n        );\n        l = verify(\n            W2,\n            _concat2(_k(l), ripemd160(abi.encodePacked(_x(l)))),\n            i2,\n            2\n        );\n        l = verify(\n            W3,\n            _concat2(_k(l), ripemd160(abi.encodePacked(msg.sender, _x(l)))),\n            i3,\n            3\n        );\n        Contract memory c = contracts[owner][index];\n        if(c.lock == l){\n            msg.sender.transfer(uint48(v1));\n        }\n\n    }\n}",
  "sourcePath": "/home/anupa/Projects/Service-Market/contracts/Market.sol",
  "compiler": {
    "name": "solc",
    "version": "0.5.16+commit.9c3226ce.Emscripten.clang"
  },
  "schemaVersion": "3.4.1",
  "updatedAt": "2021-08-12T12:26:34.466Z",
  "networkType": "ethereum",
  "devdoc": {
    "methods": {}
  },
  "userdoc": {
    "methods": {}
  }
}